{
  "contractName": "Database",
  "abi": [
    {
      "inputs": [],
      "payable": false,
      "stateMutability": "nonpayable",
      "type": "constructor"
    },
    {
      "constant": true,
      "inputs": [
        {
          "internalType": "uint256",
          "name": "",
          "type": "uint256"
        }
      ],
      "name": "workers",
      "outputs": [
        {
          "internalType": "uint256",
          "name": "id",
          "type": "uint256"
        },
        {
          "internalType": "string",
          "name": "name",
          "type": "string"
        },
        {
          "internalType": "string",
          "name": "phoneNumber",
          "type": "string"
        },
        {
          "internalType": "string",
          "name": "position",
          "type": "string"
        }
      ],
      "payable": false,
      "stateMutability": "view",
      "type": "function"
    },
    {
      "constant": true,
      "inputs": [],
      "name": "workersCount",
      "outputs": [
        {
          "internalType": "uint256",
          "name": "",
          "type": "uint256"
        }
      ],
      "payable": false,
      "stateMutability": "view",
      "type": "function"
    }
  ],
  "bytecode": "0x608060405234801561001057600080fd5b506100c16040518060400160405280600681526020017fc38164c3a16d00000000000000000000000000000000000000000000000000008152506040518060400160405280600c81526020017f2b333633303131313131313100000000000000000000000000000000000000008152506040518060400160405280600681526020017f53656e696f72000000000000000000000000000000000000000000000000000081525061022660201b60201c565b6101716040518060400160405280600681526020017f4ac3a16e6f7300000000000000000000000000000000000000000000000000008152506040518060400160405280600c81526020017f2b333632303232323232323200000000000000000000000000000000000000008152506040518060400160405280600681526020017f4a756e696f72000000000000000000000000000000000000000000000000000081525061022660201b60201c565b6102216040518060400160405280600581526020017f416b72616d0000000000000000000000000000000000000000000000000000008152506040518060400160405280600c81526020017f2b333637303737373737373700000000000000000000000000000000000000008152506040518060400160405280600681526020017f496e7465726e000000000000000000000000000000000000000000000000000081525061022660201b60201c565b61037d565b600160008154809291906001019190505550604051806080016040528060015481526020018481526020018381526020018281525060008060015481526020019081526020016000206000820151816000015560208201518160010190805190602001906102959291906102d8565b5060408201518160020190805190602001906102b29291906102d8565b5060608201518160030190805190602001906102cf9291906102d8565b50905050505050565b828054600181600116156101000203166002900490600052602060002090601f016020900481019282601f1061031957805160ff1916838001178555610347565b82800160010185558215610347579182015b8281111561034657825182559160200191906001019061032b565b5b5090506103549190610358565b5090565b61037a91905b8082111561037657600081600090555060010161035e565b5090565b90565b6104128061038c6000396000f3fe608060405234801561001057600080fd5b50600436106100365760003560e01c8063be18cf7f1461003b578063f1a22dc214610059575b600080fd5b6100436101df565b6040518082815260200191505060405180910390f35b6100856004803603602081101561006f57600080fd5b81019080803590602001909291905050506101e5565b60405180858152602001806020018060200180602001848103845287818151815260200191508051906020019080838360005b838110156100d35780820151818401526020810190506100b8565b50505050905090810190601f1680156101005780820380516001836020036101000a031916815260200191505b50848103835286818151815260200191508051906020019080838360005b8381101561013957808201518184015260208101905061011e565b50505050905090810190601f1680156101665780820380516001836020036101000a031916815260200191505b50848103825285818151815260200191508051906020019080838360005b8381101561019f578082015181840152602081019050610184565b50505050905090810190601f1680156101cc5780820380516001836020036101000a031916815260200191505b5097505050505050505060405180910390f35b60015481565b6000602052806000526040600020600091509050806000015490806001018054600181600116156101000203166002900480601f0160208091040260200160405190810160405280929190818152602001828054600181600116156101000203166002900480156102975780601f1061026c57610100808354040283529160200191610297565b820191906000526020600020905b81548152906001019060200180831161027a57829003601f168201915b505050505090806002018054600181600116156101000203166002900480601f0160208091040260200160405190810160405280929190818152602001828054600181600116156101000203166002900480156103355780601f1061030a57610100808354040283529160200191610335565b820191906000526020600020905b81548152906001019060200180831161031857829003601f168201915b505050505090806003018054600181600116156101000203166002900480601f0160208091040260200160405190810160405280929190818152602001828054600181600116156101000203166002900480156103d35780601f106103a8576101008083540402835291602001916103d3565b820191906000526020600020905b8154815290600101906020018083116103b657829003601f168201915b505050505090508456fea265627a7a72315820e616db2c5c50558f97bc45104480e03126702724bae0b9bbfaac4ca1066f55bc64736f6c634300050c0032",
  "source": "pragma solidity ^0.5.0;\r\n\r\ncontract Database {\r\n\t\r\n\tstruct Worker {\r\n\t\tuint id;\r\n\t\tstring name;\r\n\t\tstring phoneNumber;\r\n\t\tstring position;\r\n\t}\r\n\t\r\n\tconstructor() public {\r\n\t\taddWorker(\"Ádám\",\"+36301111111\",\"Senior\");\r\n\t\taddWorker(\"János\",\"+36202222222\",\"Junior\");\r\n\t\taddWorker(\"Akram\",\"+36707777777\",\"Intern\");\r\n\t}\r\n\t\r\n\t\r\n\tmapping(uint => Worker) public workers;\r\n\t\r\n\tuint public workersCount;\r\n\t\r\n\tfunction addWorker (string memory _name, string memory _phoneNumber,string memory _position) private {\r\n\t\tworkersCount++;\r\n\t\tworkers[workersCount] = Worker(workersCount,_name,_phoneNumber,_position);\r\n\t}\r\n\t\r\n}",
  "sourcePath": "C:/Users/AKRAM/Desktop/MSC 2/onlab/tutorial/workersDatabase/contracts/Database.sol",
  "compiler": {
    "name": "solc",
    "version": "0.5.12+commit.7709ece9.Emscripten.clang"
  },
  "schemaVersion": "3.0.19",
  "updatedAt": "2019-12-16T15:19:56.006Z",
  "networkType": "ethereum",
  "devdoc": {
    "methods": {}
  },
  "userdoc": {
    "methods": {}
  }
}